:100000000C942D000C94BA000C94BA000C94BA0015
:100010000C94BA000C94BA000C94BA000C94BA0078
:100020000C94BA000C94BA000C94BA000C945700CB
:100030000C94BA000C94BA000C94BA000C94BA0058
:100040000C94BA000C94BA000C94BA000C94BA0048
:100050000C94BA0000600063800011241FBECFE53D
:10006000D8E0DEBFCDBFE4E5F0E040E017C0B591D9
:10007000A59135912591059107FD0CC0959185912C
:10008000EF01F92FE82F05900D92A217B307D9F7CA
:10009000FE0104C01D92A217B307E1F7E935F4078A
:0E00A00031F70E94B5000C94A000F894FFCF39
:1000AE001F920F920FB60F9211242F933F934F93DF
:1000BE005F936F937F938F939F93AF93BF93EF93C2
:1000CE00FF93809160009091610001969093610082
:1000DE008093600084389E4141F41092610010922A
:1000EE0060008EEF82BF0E948D00FF91EF91BF9155
:1000FE00AF919F918F917F916F915F914F913F91B2
:0C010E002F910F900FBE0F901F901895BE
:10011A0080916200811107C082B3886082BB81E04E
:10012A00809362000895813029F482B3877F82BB6D
:06013A001092620008951E
:10014000EC010E94BF000E94BE00CE010E94C000D0
:06015000CE010E94BC007C
:1001560078948EEF82BF83B7826083BF89B7816050
:0401660089BF0895B0
:0A016A0088E081BB0E94AB00FFCFCC
:040174000C940000E7
:040178000E9455008C
:02017C000895E4
:02017E000895E2
:020180000895E0
:00000001FF
