:100000000C942A000C94DB000C94DB000C94DB00B5
:100010000C94DB000C94DB000C94DB000C94DB00F4
:100020000C94DB000C94DB000C94DB000C94DB00E4
:100030000C94DB000C94DB000C94DB000C94DB00D4
:100040000C94DB000C94DB000C94DB000C94DB00C4
:100050000C94DB0011241FBECFE5D8E0DEBFCDBF7E
:0C0060000E94BD000C94D000F894FFCF6B
:10006C008FE097E20197F1F700C0000088E20E9450
:10007C0069009DE09A95F1F7000082E00E9469000A
:10008C0083EF91E00197F1F700C0000086E00E9439
:10009C0069009DE09A95F1F700008FE00E946900DD
:1000AC0084E10E9469008FE097E20197F1F700C0AC
:1000BC00000081E00E94690083EF91E00197F1F765
:0600CC0000C000000895D1
:1000D2009BB39F70282F207F922B9BBB98B39D7F51
:1000E20098BB98B39B7F98BB98B3986098BB00006D
:1000F20098B3977F98BB2BB330E1839FC001112443
:10010200922F9F70892B8BBB88B38D7F88BB88B35E
:100112008B7F88BB88B3886088BB000088B3877FE9
:0401220088BB0895F9
:100126009BB39F70282F207F922B9BBB98B3926026
:1001360098BB98B39B7F98BB98B3986098BB000018
:1001460098B3977F98BB2BB330E1839FC0011124EE
:10015600922F9F70892B8BBB88B3826088BB88B334
:100166008B7F88BB88B3886088BB000088B3877F95
:0401760088BB0895A5
:10017A008FEF8ABB8FE087BB0E94360088E60E9419
:10018A0093008FE60E94930084E60E94930081E622
:06019A000E949300FFCF5C
:1001A000EC010E94E0000E94DF00CE010E94E1000D
:0601B000CE010E94DD00FB
:0401B6000C940000A5
:0401BA000E9434006B
:0201BE000895A2
:0201C0000895A0
:0201C20008959E
:00000001FF
