:100000000C942D000C9457000C94B9000C94B9007A
:100010000C94B9000C94B9000C94B9000C94B9007C
:100020000C94B9000C94B9000C94B9000C94B9006C
:100030000C94B9000C94B9000C94B9000C94B9005C
:100040000C94B9000C94B9000C94B9000C94B9004C
:100050000C94B90000600063800011241FBECFE53E
:10006000D8E0DEBFCDBFE4E5F0E040E017C0B591D9
:10007000A59135912591059107FD0CC0959185912C
:10008000EF01F92FE82F05900D92A217B307D9F7CA
:10009000FE0104C01D92A217B307E1F7E935F4078A
:0E00A00031F70E9491000C94A900F894FFCF54
:1000AE001F920F920FB60F9211242F933F934F93DF
:1000BE005F936F937F938F939F93AF93BF93EF93C2
:1000CE00FF93E0916000F09161000995FF91EF912F
:1000DE00BF91AF919F918F917F916F915F914F9152
:0E00EE003F912F910F900FBE0F901F9018950D
:1000FC0080916200811107C082B3886082BB81E06D
:10010C00809362000895813029F482B3877F82BB8B
:06011C001092620008953C
:1001220081B38B7F81BB81B3886081BB0E949E00BB
:0A0132008EE790E00E94B400FFCFBA
:10013C0085B7816085BF85B7826085BF8BB78064CA
:06014C008BBF78940895BA
:10015200EC010E94BE000E94BD00CE010E94BF00C1
:06016200CE010E94BB006B
:0A01680090936100809360000895F9
:040172000C940000E9
:040176000E9455008E
:02017A000895E6
:02017C000895E4
:02017E000895E2
:00000001FF
